:100000000C945B000C9483000C9483000C9483008C
:100010000C9483000C9483000C9483000C94830054
:100020000C9483000C9483000C9483000C94830044
:100030000C9483000C9483000C9483000C94830034
:100040000C94DA030C9483000C9483000C948300CA
:100050000C9483000C9483000C9483000C94830014
:100060000C9483000C948300000024272A000025B0
:10007000282B000023262904040404040404040299
:100080000202020202030303030303010204081035
:100090002040800102040810200102040810200002
:1000A0000000070002010000030406000000000039
:1000B00000000000960211241FBECFEFD4E0DEBF87
:1000C000CDBF11E0A0E0B1E0EAE9FCE002C005909C
:1000D0000D92AC38B107D9F711E0ACE8B1E001C03E
:1000E0001D92AE39B107E1F710E0C6EBD0E004C0D5
:1000F0002297FE010E944706C43BD107C9F70E9420
:10010000D3030C944B060C940000FC0160834183E4
:1001100012821382148215820895FC016083418348
:1001200012821382148215820895AF92BF92DF92D9
:10013000EF92FF920F931F93CF93DF93EC01B62EB4
:100140008A819B81AC81BD810097A105B10569F1D0
:10015000EE80FF808DEF9FEFE80EF91E60E0898151
:100160000E944A05C7010E946F04DD24D39408E071
:1001700010E0AB2CBB248D2D90E08A219B21892B94
:1001800011F061E001C060E089810E944A05C70169
:100190000E946F04DD0C0150104069F761E0898115
:1001A0000E944A05C7010E946F04DF91CF911F9101
:1001B0000F91FF90EF90DF90BF90AF9008950E9455
:1001C000950008952F923F924F925F926F927F9287
:1001D0008F929F92AF92BF92CF92DF92EF92FF9257
:1001E0000F931F93DF93CF93CDB7DEB7A0970FB6D2
:1001F000F894DEBF0FBECDBF1C016A017B01411523
:1002000051056105710521F460E30E9495004FC01E
:10021000882499245401422E55246624772401E031
:1002200010E00C0F1D1F080D191DC701B601A30119
:1002300092010E94F405F80160830894811C911CCE
:10024000A11CB11CC701B601A30192010E94F405D3
:10025000C901DA016C017D01C114D104E104F1048A
:10026000F1F681E0E82EF12CEC0EFD1EE80CF91CF5
:100270003E010894611C711CD501C4010197A109BC
:10028000B1096C01C818D9080FC0F601EE0DFF1DA9
:1002900060816A3010F4605D01C0695CC1010E9438
:1002A00095000894E108F1086E147F0471F7A09698
:1002B0000FB6F894DEBF0FBECDBFCF91DF911F9177
:1002C0000F91FF90EF90DF90CF90BF90AF909F90F5
:1002D0008F907F906F905F904F903F902F900895F8
:1002E0002AE00E94E2000895AB0160E070E00E9405
:1002F000700108950F931F938C016DE00E9495008B
:100300006AE0C8010E9495001F910F9108950F9314
:100310001F938C010E947001C8010E947A011F91F5
:100320000F9108950F931F938C010E949500C801AF
:100330000E947A011F910F9108950F931F938C01D2
:100340000E949500C8010E947A011F910F910895A3
:10035000EF92FF920F931F93CF93DF93EC017A01FB
:100360008B0177FF0BC06DE20E9495001095009500
:10037000F094E094E11CF11C011D111D2AE0B8016C
:10038000A701CE010E94E200DF91CF911F910F9152
:10039000FF90EF9008950F931F938C010E94A80186
:1003A000C8010E947A011F910F910895AB01662741
:1003B00057FD6095762F0E94A80108950F931F9313
:1003C0008C01AB01662757FD6095762F0E94A8012E
:1003D000C8010E947A011F910F91089521153105DE
:1003E00021F4642F0E94950008952A30310519F4F4
:1003F0000E94A80108950E94E20008950F931F93A0
:100400008C010E94EE01C8010E947A011F910F9198
:1004100008950F931F93CF93DF938C01EB0104C0DA
:100420002196C8010E94950068816623C9F7DF9173
:10043000CF911F910F9108950F931F938C010E94EC
:100440000902C8010E947A011F910F9108950F932C
:100450001F938C019A01AB01FC01228333834483F7
:10046000558360E472E48FE090E00E941606F80184
:100470003783268361E081810E944A05F8018681E5
:1004800097810E946F041F910F910895CF92DF9280
:10049000EF92FF920F931F93CF93DF937C01FC01A8
:1004A000C681D781F70180810E949505892BD1F7FC
:1004B000F70180810E949505892B19F00FEF1FEF3E
:1004C0002BC09DEFC92E9FEFD92ECC0EDD1EC6018D
:1004D00062E070E00E94E105CB0103970E946F0487
:1004E00000E010E0C0E0D0E0C6010E946F04F70118
:1004F00080810E9495050C2E02C0880F991F0A94D6
:10050000E2F7082B192B2196C830D10569F7F701BE
:10051000868197810E946F04C801DF91CF911F915E
:100520000F91FF90EF90DF90CF90089541E060E051
:100530008CE891E00E948D0008956130710521F4EE
:1005400061E00E944A050895672B19F460E00E945B
:100550004A050895EF92FF920F931F93CF93DF9375
:1005600060E071E08CE891E00E9409028CE891E083
:100570000E944602833509F053C067E071E08CE8C1
:1005800091E00E9409028CE891E00E944602EC0191
:10059000E097BE018CE891E00E94D601C130D10500
:1005A000C9F565E171E08CE891E00E9409028CE8F0
:1005B00091E00E944602082F8CE891E00E944602DA
:1005C000E82EFF24E7FCF09480EF9DEFE80EF91E83
:1005D0008AE0080280011124E00EF11EB7018CE8C8
:1005E00091E00E94D6016FE171E08CE891E00E94F9
:1005F00009028CE891E00E9446028C0100531040F1
:10060000B8018CE891E00E94D601B801C7010E94B0
:100610009D0268C0CD2B09F07CC06EE271E07BC00A
:10062000823509F065C066E571E08CE891E00E94D2
:1006300009028CE891E00E944602EC01E097BE01BD
:100640008CE891E00E94D601C130D10529F565E121
:1006500071E08CE891E00E9409028CE891E00E9430
:100660004602E82E8CE891E00E944602082F1127EE
:1006700007FD1095005112408AE09E2D98027001EE
:1006800011240E0D1F1DB8018CE891E00E94D601C7
:10069000802F0E9495051AC0CD2B39F565E171E0D8
:1006A0008CE891E00E9409028CE891E00E944602E9
:1006B000082F112707FD109500531040B8018CE852
:1006C00091E00E94D601802F0E94BA048C016FE154
:1006D00071E08CE891E00E940902B8018CE891E099
:1006E0000E94D60168E271E016C065E671E013C0B1
:1006F000863579F464E771E08CE891E00E940902A4
:1007000060919401709195018CE891E00E94D6016E
:1007100006C068E471E08CE891E00E941C02DF9161
:10072000CF911F910F91FF90EF90089560E080E0CE
:100730000E942C0561E081E00E942C0561E083E0CD
:100740000E942C0561E084E00E942C0561E085E0B8
:100750000E942C0561E086E00E942C0561E087E0A4
:100760000E942C0561E088E00E942C0561E089E090
:100770000E942C0561E08AE00E942C0561E08BE07C
:100780000E942C0561E08CE00E942C0561E08DE068
:100790000E942C0540E855E260E070E08CE891E0B2
:1007A0000E94270208950E947D040E9496030E94E1
:1007B000AA02FDCF1F920F920FB60F9211242F9312
:1007C0008F939F93AF93BF938091960190919701E0
:1007D000A0919801B09199018050904CAF4FBF4FBC
:1007E0008093960190939701A0939801B0939901FB
:1007F00027C08091960190919701A0919801B091A6
:10080000990180589E43A040B040809396019093F8
:100810009701A0939801B093990180919A019091CA
:100820009B01A0919C01B0919D010196A11DB11D5C
:1008300080939A0190939B01A0939C01B0939D019A
:100840008091960190919701A0919801B0919901A2
:1008500081589E43A040B04060F6BF91AF919F91F8
:100860008F912F910F900FBE0F901F9018958FB7FB
:10087000F89420919A0130919B0140919C015091F4
:100880009D018FBFB901CA010895EF92FF920F93A6
:100890001F937B018C018FB7F89440919A0150917E
:1008A0009B0160919C0170919D018FBF2FB7F894BF
:1008B00080919A0190919B01A0919C01B0919D0122
:1008C0002FBF841B950BA60BB70B8E159F05A0079A
:1008D000B10760F31F910F91FF90EF90089501977A
:1008E00059F0FC01EE0FFF1FEE0FFF1F32978FB77D
:1008F000F8943197F1F78FBF0895789484B58260AA
:1009000084BD84B5816084BD85B5826085BD85B5B3
:10091000816085BDEEE6F0E0808181608083E1E862
:10092000F0E0808182608083808181608083E0E864
:10093000F0E0808181608083E1EBF0E08081846081
:100940008083E0EBF0E0808181608083EAE7F0E083
:1009500080818460808380818260808380818160E7
:1009600080838081806880831092C1000895809385
:100970008A0108958F7090918A019295990F990F2D
:10098000907C982B90937C0080917A008064809377
:100990007A0080917A0086FDFCCF2091780040910A
:1009A0007900942F80E030E0282B392BC90108957D
:1009B0001F93CF93DF93182FEB0161E00E942C056A
:1009C000E12FF0E0E156FF4F8491833051F48091A4
:1009D0008000806880938000D0938900C093880055
:1009E00037C0843051F48091800080628093800011
:1009F000D0938B00C0938A002BC0813029F484B53A
:100A0000806884BDC7BD24C0823029F484B580626B
:100A100084BDC8BD1DC0863041F48091B00080689F
:100A20008093B000C093B30013C0873041F480912D
:100A3000B00080628093B000C093B40009C0C03899
:100A4000D10514F460E001C061E0812F0E944A05E5
:100A5000DF91CF911F910895282F30E0C90185576C
:100A60009F4FFC01949129583F4FF90184918823AD
:100A700081F0E82FF0E0E859FF4FE491F0E06623C1
:100A800029F4808190958923808308958081892B22
:100A900080830895482F50E0CA0181569F4FFC0182
:100AA0002491CA0185579F4FFC01949149585F4F8B
:100AB000FA0134913323C1F1222331F1233021F49F
:100AC000809180008F7705C0243031F480918000C0
:100AD0008F7D8093800018C0213019F484B58F7702
:100AE00004C0223021F484B58F7D84BD0DC0263032
:100AF00021F48091B0008F7705C0273029F48091D0
:100B0000B0008F7D8093B000E32FF0E0E359FF4FFA
:100B1000E491F0E0662329F4808190958923808315
:100B200008958081892B80830895482F50E0CA0161
:100B300081569F4FFC012491CA0185579F4FFC01AC
:100B4000949149585F4FFA013491332319F420E00E
:100B500030E035C0222331F1233021F48091800030
:100B60008F7705C0243031F4809180008F7D809391
:100B7000800018C0213019F484B58F7704C022306A
:100B800021F484B58F7D84BD0DC0263021F4809181
:100B9000B0008F7705C0273029F48091B0008F7D99
:100BA0008093B000E32FF0E0EE58FF4FE491F0E0C7
:100BB000808120E030E0892311F021E030E0C9019C
:100BC000089597FB092E07260AD077FD04D049D057
:100BD00006D000201AF4709561957F4F0895F6F7BE
:100BE000909581959F4F0895A1E21A2EAA1BBB1BD9
:100BF000FD010DC0AA1FBB1FEE1FFF1FA217B307E9
:100C0000E407F50720F0A21BB30BE40BF50B661FFE
:100C1000771F881F991F1A9469F7609570958095C2
:100C200090959B01AC01BD01CF01089597FB092E62
:100C300005260ED057FD04D0D7DF0AD0001C38F4AB
:100C400050954095309521953F4F4F4F5F4F0895F8
:100C5000F6F790958095709561957F4F8F4F9F4FD8
:100C60000895AA1BBB1B51E107C0AA1FBB1FA617F3
:100C7000B70710F0A61BB70B881F991F5A95A9F745
:100C800080959095BC01CD010895EE0FFF1F059052
:0A0C9000F491E02D0994F894FFCFD1
:100C9A004D6F64653A20005365742044696769742E
:100CAA00616C3A20002050696E4E756D3A20002022
:100CBA0056616C75653A2000202D204F4B0020416B
:100CCA006E616C6F672070696E7320756E737570D4
:100CDA00706F727465642E00496E76616C69642067
:100CEA00496E70757400526561642044696769745D
:100CFA00616C3A200020496E76616C696420496E05
:100D0A007075740020496E666F726D6174696F6EDA
:0C0D1A00204B65726E656C3A20000100F1
:00000001FF
